S0120000536D6172745F526F6F6D2E737265630F
S11300000C94DE000C94FB000C94FB000C94FB009D
S11300100C94FB000C94FB000C94FB000C94FB0070
S11300200C94FB000C94FB000C94FB000C94FB0060
S11300300C94FB000C94FB000C94FB000C94FB0050
S11300400C94FB000C94FB000C94FB000C94FB0040
S11300500C94FB002F01480161017A019201920185
S113006092019201920192019201920192019201F4
S113007092019201920192019201920192019201E4
S113008092019201920192019201920192019201D4
S1130090920192012F01480161017A019F01B80187
S11300A0D101EA0102020202020202020202020277
S11300B0020202020202020202020202020202021C
S11300C0020202020202020202020202020202020C
S11300D00202020202020202020202029F01B801AB
S11300E0D101EA010E02190224022F023902390257
S11300F03902390239023902390239023902390224
S11301003902390239023902390239023902390213
S11301103902390239023902390239023902390203
S1130120390239020E02190224022F0246025A022F
S11301306E02820296029602960296029602960237
S113014096029602960296029602960296029602EB
S113015096029602960296029602960296029602DB
S113016096029602960296029602960246025A0257
S11301706E028202A502AC02B302BA02C002C0023D
S1130180C002C002C002C002C002C002C002C0025B
S1130190C002C002C002C002C002C002C002C0024B
S11301A0C002C002C002C002C002C002C002C0023B
S11301B0C002C002A502AC02B302BA0211241FBEDF
S11301C0CFE5D8E0DEBFCDBF10E0A0E6B0E0E6EBBF
S11301D0FBE002C005900D92AE36B107D9F720E0DE
S11301E0AEE6B0E001C01D92A137B207E1F70E946C
S11301F0A9030C94D9050C94000087B1806487B9D5
S113020087B1806887B986B1806886B986B1846011
S113021086B986B1826086B9089586B1806486B94C
S1130220349BFECF86B1806186B924B185B190E05C
S1130230982F8827822B089540E00E942301089577
S11302400E943A02089590E0FC01E154F109E4327D
S1130250F10508F067C0E65DFF4F0C94C40541301A
S113026059F42AB381E090E002C0880F991F6A957F
S1130270E2F7822B8ABB08952AB381E090E002C0A2
S1130280880F991F6A95E2F7809582238ABB0895A7
S1130290413059F427B381E090E002C0880F991FE0
S11302A06A95E2F7822B87BB089527B381E090E03B
S11302B002C0880F991F6A95E2F78095822387BB55
S11302C00895413059F424B381E090E002C0880FCE
S11302D0991F6A95E2F7822B84BB089524B381E0C9
S11302E090E002C0880F991F6A95E2F780958223F7
S11302F084BB0895413059F421B381E090E002C0F9
S1130300880F991F6A95E2F7822B81BB089521B368
S113031081E090E002C0880F991F6A95E2F780950A
S1130320822381BB089590E0FC01E154F109E43299
S1130330F10508F067C0E25BFF4F0C94C40541303F
S113034059F42BB381E090E002C0880F991F6A959D
S1130350E2F7822B8BBB08952BB381E090E002C0BF
S1130360880F991F6A95E2F7809582238BBB0895C5
S1130370413059F428B381E090E002C0880F991FFE
S11303806A95E2F7822B88BB089528B381E090E058
S113039002C0880F991F6A95E2F78095822388BB73
S11303A00895413059F425B381E090E002C0880FEC
S11303B0991F6A95E2F7822B85BB089525B381E0E6
S11303C090E002C0880F991F6A95E2F78095822316
S11303D085BB0895413059F422B381E090E002C016
S11303E0880F991F6A95E2F7822B82BB089522B386
S11303F081E090E002C0880F991F6A95E2F780952A
S1130400822382BB089590E0FC01E154F109E432B7
S1130410F10578F5EE58FF4F0C94C4052BB381E039
S113042090E002C0880F991F6A95E2F782278BBB80
S1130430089528B381E090E002C0880F991F6A955F
S1130440E2F7822788BB089525B381E090E002C0DB
S1130450880F991F6A95E2F7822785BB089522B316
S113046081E090E002C0880F991F6A95E2F7822725
S113047082BB089590E0FC01E154F109E432F105F6
S113048008F054C0EA56FF4F0C94C40549B381E008
S113049090E09C01062E02C0220F331F0A94E2F75B
S11304A0842F90E08223932302C0959587956A95C3
S11304B0E2F7089546B381E090E09C01062E02C065
S11304C0220F331F0A94E2F7842F90E082239323B0
S11304D002C0959587956A95E2F7089543B381E044
S11304E090E09C01062E02C0220F331F0A94E2F70B
S11304F0842F90E08223932302C0959587956A9573
S1130500E2F7089540B381E090E09C01062E02C01A
S1130510220F331F0A94E2F7842F90E0822393235F
S113052002C0959587956A95E2F7089580E008954D
S11305306295607F90E0FC01E154F109E432F10539
S1130540F8F4E654FF4F0C94C4058BB38F708BBB47
S11305508BB3682B6BBB089588B38F7088BB88B34B
S1130560682B68BB089585B38F7085BB85B3682BF2
S113057065BB089582B38F7082BB82B3682B62BB64
S1130580089541E060E082E40E9493018FE99FE0D6
S11305900197F1F700C0000040E060E082E40E94AF
S11305A093018FE99FE00197F1F700C000000895DF
S11305B0CF93C82F40E062E082E40E9493016C2F45
S11305C062956F7081E40E9498020E94C1026C2FB0
S11305D081E40E9498020E94C1028FEC97E0019787
S11305E0F1F700C00000CF9108952FEF81EE94E061
S11305F0215080409040E1F700C0000041E064E0F9
S113060081E40E94230141E065E081E40E9423012A
S113061041E066E081E40E94230141E067E081E477
S11306200E94230141E060E082E40E94230141E052
S113063061E082E40E94230141E062E082E40E94DE
S1130640230140E061E082E40E94930182E00E9481
S1130650D8028FE19EE40197F1F700C0000088E220
S11306600E94D8028FEC97E00197F1F700C00000D8
S113067081E00E94D8028FE19EE40197F1F700C067
S113068000008CE00E94D8028FEC97E00197F1F70C
S113069000C0000086E00E94D8028FEC97E001972A
S11306A0F1F700C000000895CF93C82F41E062E045
S11306B082E40E9493016C2F62956F7081E40E9422
S11306C098020E94C1026C2F81E40E9498020E9449
S11306D0C102CF910895CF93DF93EC0103C00E9430
S11306E05403219688818111FACFDF91CF91089527
S11306F09FEF980F923070F4613170F4662371F0BB
S1130700813019F48FE7860F0CC0823049F48FEBE7
S1130710860F07C080E805C080E803C080E801C0F8
S113072080E00E94D8028FEC97E00197F1F700C0B7
S11307300000089541E00E942301089541E00E94D1
S11307409301089540E00E94930108950E940302DA
S113075008950E94F5020E94FD0060E083E40E9477
S11307609A0361E083E40E949A0360E084E40E94B7
S11307709A0361E084E40E949A0362E084E40E94A4
S11307801C0163E084E40E941C0180E690E00E9466
S11307906B03C0E062E084E40E942001813041F4F4
S11307A0C11106C060E083E40E94A603C1E007C053
S11307B062E084E40E942001811101C0C0E063E092
S11307C084E40E942001813071F461E083E40E949A
S11307D09E032FEF34E38CE0215030408040E1F75A
S11307E000C0000004C061E083E40E94A2030E94F0
S11307F00D01BC0180E090E00E94C90420E030E0DB
S113080040E85EE30E942F050E949A0470936F00F3
S113081060936E006A30710578F56DE081E00E94A6
S1130820780380E30E94540340916E0050916F005E
S11308309A01ADECBCEC0E94CA05969587959695F5
S11308408795969587959C01220F331F880F991FD2
S1130850880F991F880F991F820F931F9A01281BD5
S1130860390BC901805D0E9454038FED0E9454032B
S113087083E40E9454033FC064367105E0F56DE0E3
S113088081E00E94780320916E0030916F00ADECFE
S1130890BCEC0E94CA059695879596958795969582
S11308A08795805D0E94540340916E0050916F00C3
S11308B09A01ADECBCEC0E94CA0596958795969575
S11308C08795969587959C01220F331F880F991F52
S11308D0880F991F880F991F820F931F9A01281B55
S11308E0390BC901805D0E9454038FED0E945403AB
S11308F083E40E94540380916E0090916F004E97A0
S113090028F461E084E40E949E0304C061E084E46E
S11309100E94A20380916E0090916F004E9728F080
S113092060E084E40E949E0335CF60E084E40E948A
S1130930A20330CF0E940E0588F09F5798F0B92F7C
S11309409927B751B0F0E1F0660F771F881F991F00
S11309501AF0BA95C9F714C0B13091F00E94280575
S1130960B1E008950C942805672F782F8827B85F85
S113097039F0B93FCCF3869577956795B395D9F758
S11309803EF490958095709561957F4F8F4F9F4F62
S11309900895E89409C097FB3EF49095809570956E
S11309A061957F4F8F4F9F4F9923A9F0F92F96E9B7
S11309B0BB279395F695879577956795B795F1112C
S11309C0F8CFFAF4BB0F11F460FF1BC06F5F7F4FC9
S11309D08F4F9F4F16C0882311F096E911C07723DB
S11309E021F09EE8872F762F05C0662371F096E8E4
S11309F0862F70E060E02AF09A95660F771F881FB3
S1130A00DAF7880F9695879597F9089557FD9058CA
S1130A10440F551F59F05F3F71F04795880F97FBBE
S1130A20991F61F09F3F79F0879508951216130678
S1130A301406551FF2CF4695F1DF08C016161706A7
S1130A401806991FF1CF86957105610508940895DC
S1130A50E894BB2766277727CB0197F908950E946E
S1130A6042050C94B3050E94A50538F00E94AC051C
S1130A7020F0952311F00C949C050C94A2051124EC
S1130A800C9429050E94060570F3959FC1F3950FF8
S1130A9050E0551F629FF001729FBB27F00DB11DFE
S1130AA0639FAA27F00DB11DAA1F649F6627B00D8E
S1130AB0A11D661F829F2227B00DA11D621F739F77
S1130AC0B00DA11D621F839FA00D611D221F749F85
S1130AD03327A00D611D231F849F600D211D822FCC
S1130AE0762F6A2F11249F5750409AF0F1F08823F3
S1130AF04AF0EE0FFF1FBB1F661F771F881F915020
S1130B005040A9F79E3F510580F00C949C050C942D
S1130B1029055F3FE4F3983ED4F38695779567956E
S1130B20B795F795E7959F5FC1F7FE2B880F911D49
S1130B309695879597F9089597F99F6780E870E0EF
S1130B4060E008959FEF80EC089500240A9416163F
S1130B50170618060906089500240A9412161306A7
S1130B60140605060895092E0394000C11F4882335
S1130B7052F0BB0F40F4BF2B11F460FF04C06F5F51
S1130B807F4F8F4F9F4F0895EE0FFF1F0590F491F5
S1130B90E02D0994A29FB001B39FC001A39F700DE3
S1130BA0811D1124911DB29F700D811D1124911D71
S1090BB00895F894FFCF44
S1110BB674656D70657261747572653D000042
S9030000FC
